{
  "_format": "hh-sol-artifact-1",
  "contractName": "Lottery",
  "sourceName": "contracts/Lottery.sol",
  "abi": [
    {
      "inputs": [],
      "stateMutability": "nonpayable",
      "type": "constructor"
    },
    {
      "inputs": [],
      "name": "ReentrancyGuardReentrantCall",
      "type": "error"
    },
    {
      "inputs": [
        {
          "internalType": "uint256",
          "name": "",
          "type": "uint256"
        },
        {
          "internalType": "address",
          "name": "",
          "type": "address"
        }
      ],
      "name": "amountTicketsBought",
      "outputs": [
        {
          "internalType": "uint256",
          "name": "",
          "type": "uint256"
        }
      ],
      "stateMutability": "view",
      "type": "function"
    },
    {
      "inputs": [
        {
          "internalType": "uint256",
          "name": "_id",
          "type": "uint256"
        }
      ],
      "name": "buyTicket",
      "outputs": [],
      "stateMutability": "payable",
      "type": "function"
    },
    {
      "inputs": [
        {
          "internalType": "uint256",
          "name": "_playersNumber",
          "type": "uint256"
        },
        {
          "internalType": "uint256",
          "name": "_enterPrice",
          "type": "uint256"
        }
      ],
      "name": "createLottery",
      "outputs": [],
      "stateMutability": "nonpayable",
      "type": "function"
    },
    {
      "inputs": [],
      "name": "getAllWinnersInfo",
      "outputs": [
        {
          "components": [
            {
              "internalType": "uint256",
              "name": "winnerId",
              "type": "uint256"
            },
            {
              "internalType": "uint256",
              "name": "lotteryWonId",
              "type": "uint256"
            },
            {
              "internalType": "uint256",
              "name": "lotteryWonRound",
              "type": "uint256"
            },
            {
              "internalType": "uint256",
              "name": "amountWon",
              "type": "uint256"
            },
            {
              "internalType": "address",
              "name": "winnerAddress",
              "type": "address"
            }
          ],
          "internalType": "struct Lottery.WinnerStruct[]",
          "name": "",
          "type": "tuple[]"
        }
      ],
      "stateMutability": "view",
      "type": "function"
    },
    {
      "inputs": [],
      "name": "getLotteries",
      "outputs": [
        {
          "components": [
            {
              "internalType": "uint256",
              "name": "id",
              "type": "uint256"
            },
            {
              "internalType": "uint256",
              "name": "playersNumber",
              "type": "uint256"
            },
            {
              "internalType": "uint256",
              "name": "enterPrice",
              "type": "uint256"
            },
            {
              "internalType": "uint256",
              "name": "currentBalance",
              "type": "uint256"
            },
            {
              "internalType": "uint256",
              "name": "currentPlayersNum",
              "type": "uint256"
            },
            {
              "internalType": "uint256",
              "name": "round",
              "type": "uint256"
            },
            {
              "internalType": "address[]",
              "name": "players",
              "type": "address[]"
            }
          ],
          "internalType": "struct Lottery.LotteryStruct[]",
          "name": "",
          "type": "tuple[]"
        }
      ],
      "stateMutability": "view",
      "type": "function"
    },
    {
      "inputs": [
        {
          "internalType": "uint256",
          "name": "_id",
          "type": "uint256"
        }
      ],
      "name": "getPlayers",
      "outputs": [
        {
          "internalType": "address[]",
          "name": "",
          "type": "address[]"
        }
      ],
      "stateMutability": "view",
      "type": "function"
    },
    {
      "inputs": [],
      "name": "getWinners",
      "outputs": [
        {
          "internalType": "address[]",
          "name": "",
          "type": "address[]"
        }
      ],
      "stateMutability": "view",
      "type": "function"
    },
    {
      "inputs": [
        {
          "internalType": "uint256",
          "name": "",
          "type": "uint256"
        }
      ],
      "name": "lotteries",
      "outputs": [
        {
          "internalType": "uint256",
          "name": "id",
          "type": "uint256"
        },
        {
          "internalType": "uint256",
          "name": "playersNumber",
          "type": "uint256"
        },
        {
          "internalType": "uint256",
          "name": "enterPrice",
          "type": "uint256"
        },
        {
          "internalType": "uint256",
          "name": "currentBalance",
          "type": "uint256"
        },
        {
          "internalType": "uint256",
          "name": "currentPlayersNum",
          "type": "uint256"
        },
        {
          "internalType": "uint256",
          "name": "round",
          "type": "uint256"
        }
      ],
      "stateMutability": "view",
      "type": "function"
    },
    {
      "inputs": [],
      "name": "lotteriesCount",
      "outputs": [
        {
          "internalType": "uint256",
          "name": "",
          "type": "uint256"
        }
      ],
      "stateMutability": "view",
      "type": "function"
    },
    {
      "inputs": [],
      "name": "owner",
      "outputs": [
        {
          "internalType": "address",
          "name": "",
          "type": "address"
        }
      ],
      "stateMutability": "view",
      "type": "function"
    },
    {
      "inputs": [
        {
          "internalType": "uint256",
          "name": "_id",
          "type": "uint256"
        }
      ],
      "name": "pickWinner",
      "outputs": [],
      "stateMutability": "nonpayable",
      "type": "function"
    },
    {
      "inputs": [
        {
          "internalType": "uint256",
          "name": "_id",
          "type": "uint256"
        }
      ],
      "name": "refundTicket",
      "outputs": [],
      "stateMutability": "nonpayable",
      "type": "function"
    },
    {
      "inputs": [
        {
          "internalType": "uint256",
          "name": "",
          "type": "uint256"
        }
      ],
      "name": "winnerInfos",
      "outputs": [
        {
          "internalType": "uint256",
          "name": "winnerId",
          "type": "uint256"
        },
        {
          "internalType": "uint256",
          "name": "lotteryWonId",
          "type": "uint256"
        },
        {
          "internalType": "uint256",
          "name": "lotteryWonRound",
          "type": "uint256"
        },
        {
          "internalType": "uint256",
          "name": "amountWon",
          "type": "uint256"
        },
        {
          "internalType": "address",
          "name": "winnerAddress",
          "type": "address"
        }
      ],
      "stateMutability": "view",
      "type": "function"
    },
    {
      "inputs": [
        {
          "internalType": "uint256",
          "name": "",
          "type": "uint256"
        }
      ],
      "name": "winners",
      "outputs": [
        {
          "internalType": "address",
          "name": "",
          "type": "address"
        }
      ],
      "stateMutability": "view",
      "type": "function"
    }
  ],
  "bytecode": "0x608060405234801561001057600080fd5b50600160008190555033600160006101000a81548173ffffffffffffffffffffffffffffffffffffffff021916908373ffffffffffffffffffffffffffffffffffffffff16021790555061252d806100696000396000f3fe6080604052600436106100dd5760003560e01c8063757741001161007f578063bcc82ec411610059578063bcc82ec4146102e2578063df15c37e1461030d578063f737d21d14610338578063fe35804e14610361576100dd565b806375774100146102515780638da5cb5b1461027a578063a2fb1175146102a5576100dd565b8063460e2049116100bb578063460e20491461019057806350d9533e146101cd57806351b05389146101f857806367dd74ca14610235576100dd565b80630da040ab146100e25780631398e0761461010d57806345fa16a91461014f575b600080fd5b3480156100ee57600080fd5b506100f761038a565b6040516101049190611946565b60405180910390f35b34801561011957600080fd5b50610134600480360381019061012f9190611999565b6104d4565b604051610146969594939291906119d5565b60405180910390f35b34801561015b57600080fd5b5061017660048036038101906101719190611999565b610510565b604051610187959493929190611a45565b60405180910390f35b34801561019c57600080fd5b506101b760048036038101906101b29190611999565b610566565b6040516101c49190611b47565b60405180910390f35b3480156101d957600080fd5b506101e261060a565b6040516101ef9190611b69565b60405180910390f35b34801561020457600080fd5b5061021f600480360381019061021a9190611bb0565b610610565b60405161022c9190611b69565b60405180910390f35b61024f600480360381019061024a9190611999565b610635565b005b34801561025d57600080fd5b5061027860048036038101906102739190611999565b610882565b005b34801561028657600080fd5b5061028f610cd9565b60405161029c9190611bf0565b60405180910390f35b3480156102b157600080fd5b506102cc60048036038101906102c79190611999565b610cff565b6040516102d99190611bf0565b60405180910390f35b3480156102ee57600080fd5b506102f7610d3e565b6040516103049190611dd8565b60405180910390f35b34801561031957600080fd5b50610322610ece565b60405161032f9190611b47565b60405180910390f35b34801561034457600080fd5b5061035f600480360381019061035a9190611999565b610f5c565b005b34801561036d57600080fd5b5061038860048036038101906103839190611dfa565b611445565b005b6060600060068054905067ffffffffffffffff8111156103ad576103ac611e3a565b5b6040519080825280602002602001820160405280156103e657816020015b6103d361168b565b8152602001906001900390816103cb5790505b50905060005b6006805490508110156104cc576004600060018361040a9190611e98565b81526020019081526020016000206040518060a0016040529081600082015481526020016001820154815260200160028201548152602001600382015481526020016004820160009054906101000a900473ffffffffffffffffffffffffffffffffffffffff1673ffffffffffffffffffffffffffffffffffffffff1673ffffffffffffffffffffffffffffffffffffffff16815250508282815181106104b4576104b3611ecc565b5b602002602001018190525080806001019150506103ec565b508091505090565b60036020528060005260406000206000915090508060000154908060010154908060020154908060030154908060040154908060050154905086565b60046020528060005260406000206000915090508060000154908060010154908060020154908060030154908060040160009054906101000a900473ffffffffffffffffffffffffffffffffffffffff16905085565b6060600360008381526020019081526020016000206006018054806020026020016040519081016040528092919081815260200182805480156105fe57602002820191906000526020600020905b8160009054906101000a900473ffffffffffffffffffffffffffffffffffffffff1673ffffffffffffffffffffffffffffffffffffffff16815260200190600101908083116105b4575b50505050509050919050565b60025481565b6005602052816000526040600020602052806000526040600020600091509150505481565b61063d6115e9565b60036000828152602001908152602001600020600201543414610695576040517f08c379a000000000000000000000000000000000000000000000000000000000815260040161068c90611f58565b60405180910390fd5b6003600082815260200190815260200160002060010154600360008381526020019081526020016000206004015410610703576040517f08c379a00000000000000000000000000000000000000000000000000000000081526004016106fa90611fc4565b60405180910390fd5b346003600083815260200190815260200160002060030160008282546107299190611e98565b9250508190555060036000828152602001908152602001600020600401600081548092919061075790611fe4565b919050555060036000828152602001908152602001600020600601339080600181540180825580915050600190039060005260206000200160009091909190916101000a81548173ffffffffffffffffffffffffffffffffffffffff021916908373ffffffffffffffffffffffffffffffffffffffff160217905550346005600083815260200190815260200160002060003373ffffffffffffffffffffffffffffffffffffffff1673ffffffffffffffffffffffffffffffffffffffff16815260200190815260200160002060008282546108339190611e98565b9250508190555060036000828152602001908152602001600020600101546003600083815260200190815260200160002060040154036108775761087681610f5c565b5b61087f61162f565b50565b61088a6115e9565b60006005600083815260200190815260200160002060003373ffffffffffffffffffffffffffffffffffffffff1673ffffffffffffffffffffffffffffffffffffffff168152602001908152602001600020541161091d576040517f08c379a000000000000000000000000000000000000000000000000000000000815260040161091490612078565b60405180910390fd5b60006005600083815260200190815260200160002060003373ffffffffffffffffffffffffffffffffffffffff1673ffffffffffffffffffffffffffffffffffffffff168152602001908152602001600020549050806003600084815260200190815260200160002060030160008282546109989190612098565b925050819055506003600083815260200190815260200160002060040160008154809291906109c6906120cc565b919050555060003373ffffffffffffffffffffffffffffffffffffffff16826040516109f190612126565b60006040518083038185875af1925050503d8060008114610a2e576040519150601f19603f3d011682016040523d82523d6000602084013e610a33565b606091505b5050905080610a77576040517f08c379a0000000000000000000000000000000000000000000000000000000008152600401610a6e90612187565b60405180910390fd5b60006005600085815260200190815260200160002060003373ffffffffffffffffffffffffffffffffffffffff1673ffffffffffffffffffffffffffffffffffffffff1681526020019081526020016000208190555060005b6003600085815260200190815260200160002060060180549050811015610ccb573373ffffffffffffffffffffffffffffffffffffffff16600360008681526020019081526020016000206006018281548110610b3057610b2f611ecc565b5b9060005260206000200160009054906101000a900473ffffffffffffffffffffffffffffffffffffffff1673ffffffffffffffffffffffffffffffffffffffff1603610cbe576003600085815260200190815260200160002060060160016003600087815260200190815260200160002060060180549050610bb29190612098565b81548110610bc357610bc2611ecc565b5b9060005260206000200160009054906101000a900473ffffffffffffffffffffffffffffffffffffffff16600360008681526020019081526020016000206006018281548110610c1657610c15611ecc565b5b9060005260206000200160006101000a81548173ffffffffffffffffffffffffffffffffffffffff021916908373ffffffffffffffffffffffffffffffffffffffff16021790555060036000858152602001908152602001600020600601805480610c8457610c836121a7565b5b6001900381819060005260206000200160006101000a81549073ffffffffffffffffffffffffffffffffffffffff02191690559055610ccb565b8080600101915050610ad0565b505050610cd661162f565b50565b600160009054906101000a900473ffffffffffffffffffffffffffffffffffffffff1681565b60068181548110610d0f57600080fd5b906000526020600020016000915054906101000a900473ffffffffffffffffffffffffffffffffffffffff1681565b6060600060025467ffffffffffffffff811115610d5e57610d5d611e3a565b5b604051908082528060200260200182016040528015610d9757816020015b610d846116d0565b815260200190600190039081610d7c5790505b50905060005b600254811015610ec65760036000600183610db89190611e98565b81526020019081526020016000206040518060e001604052908160008201548152602001600182015481526020016002820154815260200160038201548152602001600482015481526020016005820154815260200160068201805480602002602001604051908101604052809291908181526020018280548015610e9257602002820191906000526020600020905b8160009054906101000a900473ffffffffffffffffffffffffffffffffffffffff1673ffffffffffffffffffffffffffffffffffffffff1681526020019060010190808311610e48575b505050505081525050828281518110610eae57610ead611ecc565b5b60200260200101819052508080600101915050610d9d565b508091505090565b60606006805480602002602001604051908101604052809291908181526020018280548015610f5257602002820191906000526020600020905b8160009054906101000a900473ffffffffffffffffffffffffffffffffffffffff1673ffffffffffffffffffffffffffffffffffffffff1681526020019060010190808311610f08575b5050505050905090565b6003600082815260200190815260200160002060010154600360008381526020019081526020016000206004015414610fca576040517f08c379a0000000000000000000000000000000000000000000000000000000008152600401610fc190612222565b60405180910390fd5b6000610feb6003600084815260200190815260200160002060010154611639565b90506000600360008481526020019081526020016000206002015460036000858152602001908152602001600020600101546110279190612242565b905060006064600a8361103a9190612242565b61104491906122b3565b90506000600182846110569190612098565b6110609190612242565b9050600060036000878152602001908152602001600020600601858154811061108c5761108b611ecc565b5b9060005260206000200160009054906101000a900473ffffffffffffffffffffffffffffffffffffffff16905060008173ffffffffffffffffffffffffffffffffffffffff16836040516110df90612126565b60006040518083038185875af1925050503d806000811461111c576040519150601f19603f3d011682016040523d82523d6000602084013e611121565b606091505b5050905080611165576040517f08c379a000000000000000000000000000000000000000000000000000000000815260040161115c90612330565b60405180910390fd5b6006829080600181540180825580915050600190039060005260206000200160009091909190916101000a81548173ffffffffffffffffffffffffffffffffffffffff021916908373ffffffffffffffffffffffffffffffffffffffff1602179055506003600088815260200190815260200160002060050160008154809291906111ef90611fe4565b9190505550600060036000898152602001908152602001600020600301819055506000600360008981526020019081526020016000206004018190555060005b600360008981526020019081526020016000206006018054905081101561130b576000600360008a8152602001908152602001600020600601828154811061127a57611279611ecc565b5b9060005260206000200160009054906101000a900473ffffffffffffffffffffffffffffffffffffffff1690506000600560008b815260200190815260200160002060008373ffffffffffffffffffffffffffffffffffffffff1673ffffffffffffffffffffffffffffffffffffffff1681526020019081526020016000208190555050808060010191505061122f565b5060036000888152602001908152602001600020600601600061132e919061170d565b61133661168b565b6006805490508160000181815250508781602001818152505060036000898152602001908152602001600020600501548160400181815250508381606001818152505082816080019073ffffffffffffffffffffffffffffffffffffffff16908173ffffffffffffffffffffffffffffffffffffffff16815250508060046000836000015181526020019081526020016000206000820151816000015560208201518160010155604082015181600201556060820151816003015560808201518160040160006101000a81548173ffffffffffffffffffffffffffffffffffffffff021916908373ffffffffffffffffffffffffffffffffffffffff1602179055509050505050505050505050565b600160009054906101000a900473ffffffffffffffffffffffffffffffffffffffff1673ffffffffffffffffffffffffffffffffffffffff163373ffffffffffffffffffffffffffffffffffffffff161461149f57600080fd5b600182116114e2576040517f08c379a00000000000000000000000000000000000000000000000000000000081526004016114d9906123c2565b60405180910390fd5b60008103611525576040517f08c379a000000000000000000000000000000000000000000000000000000000815260040161151c9061242e565b60405180910390fd5b61152d6116d0565b6002600081548092919061154090611fe4565b9190505550600254816000018181525050828160200181815250508181604001818152505060018160a0018181525050806003600083600001518152602001908152602001600020600082015181600001556020820151816001015560408201518160020155606082015181600301556080820151816004015560a0820151816005015560c08201518160060190805190602001906115e092919061172e565b50905050505050565b600260005403611625576040517f3ee5aeb500000000000000000000000000000000000000000000000000000000815260040160405180910390fd5b6002600081905550565b6001600081905550565b6000806001436116499190612098565b404260405160200161165c92919061249a565b6040516020818303038152906040528051906020012060001c9050828161168391906124c6565b915050919050565b6040518060a0016040528060008152602001600081526020016000815260200160008152602001600073ffffffffffffffffffffffffffffffffffffffff1681525090565b6040518060e00160405280600081526020016000815260200160008152602001600081526020016000815260200160008152602001606081525090565b508054600082559060005260206000209081019061172b91906117b8565b50565b8280548282559060005260206000209081019282156117a7579160200282015b828111156117a65782518260006101000a81548173ffffffffffffffffffffffffffffffffffffffff021916908373ffffffffffffffffffffffffffffffffffffffff1602179055509160200191906001019061174e565b5b5090506117b491906117b8565b5090565b5b808211156117d15760008160009055506001016117b9565b5090565b600081519050919050565b600082825260208201905092915050565b6000819050602082019050919050565b6000819050919050565b61181481611801565b82525050565b600073ffffffffffffffffffffffffffffffffffffffff82169050919050565b60006118458261181a565b9050919050565b6118558161183a565b82525050565b60a082016000820151611871600085018261180b565b506020820151611884602085018261180b565b506040820151611897604085018261180b565b5060608201516118aa606085018261180b565b5060808201516118bd608085018261184c565b50505050565b60006118cf838361185b565b60a08301905092915050565b6000602082019050919050565b60006118f3826117d5565b6118fd81856117e0565b9350611908836117f1565b8060005b8381101561193957815161192088826118c3565b975061192b836118db565b92505060018101905061190c565b5085935050505092915050565b6000602082019050818103600083015261196081846118e8565b905092915050565b600080fd5b61197681611801565b811461198157600080fd5b50565b6000813590506119938161196d565b92915050565b6000602082840312156119af576119ae611968565b5b60006119bd84828501611984565b91505092915050565b6119cf81611801565b82525050565b600060c0820190506119ea60008301896119c6565b6119f760208301886119c6565b611a0460408301876119c6565b611a1160608301866119c6565b611a1e60808301856119c6565b611a2b60a08301846119c6565b979650505050505050565b611a3f8161183a565b82525050565b600060a082019050611a5a60008301886119c6565b611a6760208301876119c6565b611a7460408301866119c6565b611a8160608301856119c6565b611a8e6080830184611a36565b9695505050505050565b600081519050919050565b600082825260208201905092915050565b6000819050602082019050919050565b6000611ad0838361184c565b60208301905092915050565b6000602082019050919050565b6000611af482611a98565b611afe8185611aa3565b9350611b0983611ab4565b8060005b83811015611b3a578151611b218882611ac4565b9750611b2c83611adc565b925050600181019050611b0d565b5085935050505092915050565b60006020820190508181036000830152611b618184611ae9565b905092915050565b6000602082019050611b7e60008301846119c6565b92915050565b611b8d8161183a565b8114611b9857600080fd5b50565b600081359050611baa81611b84565b92915050565b60008060408385031215611bc757611bc6611968565b5b6000611bd585828601611984565b9250506020611be685828601611b9b565b9150509250929050565b6000602082019050611c056000830184611a36565b92915050565b600081519050919050565b600082825260208201905092915050565b6000819050602082019050919050565b600082825260208201905092915050565b6000611c5382611a98565b611c5d8185611c37565b9350611c6883611ab4565b8060005b83811015611c99578151611c808882611ac4565b9750611c8b83611adc565b925050600181019050611c6c565b5085935050505092915050565b600060e083016000830151611cbe600086018261180b565b506020830151611cd1602086018261180b565b506040830151611ce4604086018261180b565b506060830151611cf7606086018261180b565b506080830151611d0a608086018261180b565b5060a0830151611d1d60a086018261180b565b5060c083015184820360c0860152611d358282611c48565b9150508091505092915050565b6000611d4e8383611ca6565b905092915050565b6000602082019050919050565b6000611d6e82611c0b565b611d788185611c16565b935083602082028501611d8a85611c27565b8060005b85811015611dc65784840389528151611da78582611d42565b9450611db283611d56565b925060208a01995050600181019050611d8e565b50829750879550505050505092915050565b60006020820190508181036000830152611df28184611d63565b905092915050565b60008060408385031215611e1157611e10611968565b5b6000611e1f85828601611984565b9250506020611e3085828601611984565b9150509250929050565b7f4e487b7100000000000000000000000000000000000000000000000000000000600052604160045260246000fd5b7f4e487b7100000000000000000000000000000000000000000000000000000000600052601160045260246000fd5b6000611ea382611801565b9150611eae83611801565b9250828201905080821115611ec657611ec5611e69565b5b92915050565b7f4e487b7100000000000000000000000000000000000000000000000000000000600052603260045260246000fd5b600082825260208201905092915050565b7f4e6f7420656e6f7567682066756e647320746f20627579207469636b65740000600082015250565b6000611f42601e83611efb565b9150611f4d82611f0c565b602082019050919050565b60006020820190508181036000830152611f7181611f35565b9050919050565b7f416c6c207469636b65747320736f6c64206f7574000000000000000000000000600082015250565b6000611fae601483611efb565b9150611fb982611f78565b602082019050919050565b60006020820190508181036000830152611fdd81611fa1565b9050919050565b6000611fef82611801565b91507fffffffffffffffffffffffffffffffffffffffffffffffffffffffffffffffff820361202157612020611e69565b5b600182019050919050565b7f4e6f7468696e6720746f20726566756e64000000000000000000000000000000600082015250565b6000612062601183611efb565b915061206d8261202c565b602082019050919050565b6000602082019050818103600083015261209181612055565b9050919050565b60006120a382611801565b91506120ae83611801565b92508282039050818111156120c6576120c5611e69565b5b92915050565b60006120d782611801565b9150600082036120ea576120e9611e69565b5b600182039050919050565b600081905092915050565b50565b60006121106000836120f5565b915061211b82612100565b600082019050919050565b600061213182612103565b9150819050919050565b7f526566756e64206661696c656400000000000000000000000000000000000000600082015250565b6000612171600d83611efb565b915061217c8261213b565b602082019050919050565b600060208201905081810360008301526121a081612164565b9050919050565b7f4e487b7100000000000000000000000000000000000000000000000000000000600052603160045260246000fd5b7f4e656564206d6f726520706c617965727320746f207069636b2077696e6e6572600082015250565b600061220c602083611efb565b9150612217826121d6565b602082019050919050565b6000602082019050818103600083015261223b816121ff565b9050919050565b600061224d82611801565b915061225883611801565b925082820261226681611801565b9150828204841483151761227d5761227c611e69565b5b5092915050565b7f4e487b7100000000000000000000000000000000000000000000000000000000600052601260045260246000fd5b60006122be82611801565b91506122c983611801565b9250826122d9576122d8612284565b5b828204905092915050565b7f7472616e73666572206661696c65640000000000000000000000000000000000600082015250565b600061231a600f83611efb565b9150612325826122e4565b602082019050919050565b600060208201905081810360008301526123498161230d565b9050919050565b7f43616e7420616464206c6f74746572792077697468206c657373207468616e2060008201527f3220706c61796572730000000000000000000000000000000000000000000000602082015250565b60006123ac602983611efb565b91506123b782612350565b604082019050919050565b600060208201905081810360008301526123db8161239f565b9050919050565b7f4c6f7474657279206d757374206861766520656e746572207072696365000000600082015250565b6000612418601d83611efb565b9150612423826123e2565b602082019050919050565b600060208201905081810360008301526124478161240b565b9050919050565b6000819050919050565b6000819050919050565b61247361246e8261244e565b612458565b82525050565b6000819050919050565b61249461248f82611801565b612479565b82525050565b60006124a68285612462565b6020820191506124b68284612483565b6020820191508190509392505050565b60006124d182611801565b91506124dc83611801565b9250826124ec576124eb612284565b5b82820690509291505056fea264697066735822122022204448a7055d8225123ab39a3be3578dae29e63a537629f0e10879089b033c64736f6c63430008180033",
  "linkReferences": {},
  "deployedLinkReferences": {}
}