{
  "_format": "hh-sol-artifact-1",
  "contractName": "Lottery",
  "sourceName": "contracts/Lottery.sol",
  "abi": [
    {
      "inputs": [],
      "stateMutability": "nonpayable",
      "type": "constructor"
    },
    {
      "inputs": [],
      "name": "ReentrancyGuardReentrantCall",
      "type": "error"
    },
    {
      "inputs": [
        {
          "internalType": "uint256",
          "name": "",
          "type": "uint256"
        },
        {
          "internalType": "address",
          "name": "",
          "type": "address"
        }
      ],
      "name": "amountTicketsBought",
      "outputs": [
        {
          "internalType": "uint256",
          "name": "",
          "type": "uint256"
        }
      ],
      "stateMutability": "view",
      "type": "function"
    },
    {
      "inputs": [
        {
          "internalType": "uint256",
          "name": "_id",
          "type": "uint256"
        }
      ],
      "name": "buyTicket",
      "outputs": [],
      "stateMutability": "payable",
      "type": "function"
    },
    {
      "inputs": [
        {
          "internalType": "uint256",
          "name": "_playersNumber",
          "type": "uint256"
        },
        {
          "internalType": "uint256",
          "name": "_enterPrice",
          "type": "uint256"
        }
      ],
      "name": "createLottery",
      "outputs": [],
      "stateMutability": "nonpayable",
      "type": "function"
    },
    {
      "inputs": [],
      "name": "getAllWinnersInfo",
      "outputs": [
        {
          "components": [
            {
              "internalType": "uint256",
              "name": "winnerId",
              "type": "uint256"
            },
            {
              "internalType": "uint256",
              "name": "lotteryWonId",
              "type": "uint256"
            },
            {
              "internalType": "uint256",
              "name": "lotteryWonRound",
              "type": "uint256"
            },
            {
              "internalType": "uint256",
              "name": "amountWon",
              "type": "uint256"
            },
            {
              "internalType": "address",
              "name": "winnerAddress",
              "type": "address"
            }
          ],
          "internalType": "struct Lottery.WinnerStruct[]",
          "name": "",
          "type": "tuple[]"
        }
      ],
      "stateMutability": "view",
      "type": "function"
    },
    {
      "inputs": [],
      "name": "getLotteries",
      "outputs": [
        {
          "components": [
            {
              "internalType": "uint256",
              "name": "id",
              "type": "uint256"
            },
            {
              "internalType": "uint256",
              "name": "playersNumber",
              "type": "uint256"
            },
            {
              "internalType": "uint256",
              "name": "enterPrice",
              "type": "uint256"
            },
            {
              "internalType": "uint256",
              "name": "currentBalance",
              "type": "uint256"
            },
            {
              "internalType": "uint256",
              "name": "currentPlayersNum",
              "type": "uint256"
            },
            {
              "internalType": "uint256",
              "name": "round",
              "type": "uint256"
            },
            {
              "internalType": "address[]",
              "name": "players",
              "type": "address[]"
            }
          ],
          "internalType": "struct Lottery.LotteryStruct[]",
          "name": "",
          "type": "tuple[]"
        }
      ],
      "stateMutability": "view",
      "type": "function"
    },
    {
      "inputs": [
        {
          "internalType": "uint256",
          "name": "_id",
          "type": "uint256"
        }
      ],
      "name": "getPlayers",
      "outputs": [
        {
          "internalType": "address[]",
          "name": "",
          "type": "address[]"
        }
      ],
      "stateMutability": "view",
      "type": "function"
    },
    {
      "inputs": [],
      "name": "getWinners",
      "outputs": [
        {
          "internalType": "address[]",
          "name": "",
          "type": "address[]"
        }
      ],
      "stateMutability": "view",
      "type": "function"
    },
    {
      "inputs": [
        {
          "internalType": "uint256",
          "name": "",
          "type": "uint256"
        }
      ],
      "name": "lotteries",
      "outputs": [
        {
          "internalType": "uint256",
          "name": "id",
          "type": "uint256"
        },
        {
          "internalType": "uint256",
          "name": "playersNumber",
          "type": "uint256"
        },
        {
          "internalType": "uint256",
          "name": "enterPrice",
          "type": "uint256"
        },
        {
          "internalType": "uint256",
          "name": "currentBalance",
          "type": "uint256"
        },
        {
          "internalType": "uint256",
          "name": "currentPlayersNum",
          "type": "uint256"
        },
        {
          "internalType": "uint256",
          "name": "round",
          "type": "uint256"
        }
      ],
      "stateMutability": "view",
      "type": "function"
    },
    {
      "inputs": [],
      "name": "lotteriesCount",
      "outputs": [
        {
          "internalType": "uint256",
          "name": "",
          "type": "uint256"
        }
      ],
      "stateMutability": "view",
      "type": "function"
    },
    {
      "inputs": [],
      "name": "owner",
      "outputs": [
        {
          "internalType": "address",
          "name": "",
          "type": "address"
        }
      ],
      "stateMutability": "view",
      "type": "function"
    },
    {
      "inputs": [
        {
          "internalType": "uint256",
          "name": "_id",
          "type": "uint256"
        }
      ],
      "name": "pickWinner",
      "outputs": [],
      "stateMutability": "nonpayable",
      "type": "function"
    },
    {
      "inputs": [
        {
          "internalType": "uint256",
          "name": "_id",
          "type": "uint256"
        }
      ],
      "name": "refundTicket",
      "outputs": [],
      "stateMutability": "nonpayable",
      "type": "function"
    },
    {
      "inputs": [
        {
          "internalType": "uint256",
          "name": "",
          "type": "uint256"
        }
      ],
      "name": "winnerInfos",
      "outputs": [
        {
          "internalType": "uint256",
          "name": "winnerId",
          "type": "uint256"
        },
        {
          "internalType": "uint256",
          "name": "lotteryWonId",
          "type": "uint256"
        },
        {
          "internalType": "uint256",
          "name": "lotteryWonRound",
          "type": "uint256"
        },
        {
          "internalType": "uint256",
          "name": "amountWon",
          "type": "uint256"
        },
        {
          "internalType": "address",
          "name": "winnerAddress",
          "type": "address"
        }
      ],
      "stateMutability": "view",
      "type": "function"
    },
    {
      "inputs": [
        {
          "internalType": "uint256",
          "name": "",
          "type": "uint256"
        }
      ],
      "name": "winners",
      "outputs": [
        {
          "internalType": "address",
          "name": "",
          "type": "address"
        }
      ],
      "stateMutability": "view",
      "type": "function"
    }
  ],
  "bytecode": "0x608060405234801561001057600080fd5b50600160008190555033600160006101000a81548173ffffffffffffffffffffffffffffffffffffffff021916908373ffffffffffffffffffffffffffffffffffffffff16021790555061244d806100696000396000f3fe6080604052600436106100dd5760003560e01c8063757741001161007f578063bcc82ec411610059578063bcc82ec4146102e2578063df15c37e1461030d578063f737d21d14610338578063fe35804e14610361576100dd565b806375774100146102515780638da5cb5b1461027a578063a2fb1175146102a5576100dd565b8063460e2049116100bb578063460e20491461019057806350d9533e146101cd57806351b05389146101f857806367dd74ca14610235576100dd565b80630da040ab146100e25780631398e0761461010d57806345fa16a91461014f575b600080fd5b3480156100ee57600080fd5b506100f761038a565b6040516101049190611866565b60405180910390f35b34801561011957600080fd5b50610134600480360381019061012f91906118b9565b6104d4565b604051610146969594939291906118f5565b60405180910390f35b34801561015b57600080fd5b50610176600480360381019061017191906118b9565b610510565b604051610187959493929190611965565b60405180910390f35b34801561019c57600080fd5b506101b760048036038101906101b291906118b9565b610566565b6040516101c49190611a67565b60405180910390f35b3480156101d957600080fd5b506101e261060a565b6040516101ef9190611a89565b60405180910390f35b34801561020457600080fd5b5061021f600480360381019061021a9190611ad0565b610610565b60405161022c9190611a89565b60405180910390f35b61024f600480360381019061024a91906118b9565b610635565b005b34801561025d57600080fd5b50610278600480360381019061027391906118b9565b610882565b005b34801561028657600080fd5b5061028f610cd9565b60405161029c9190611b10565b60405180910390f35b3480156102b157600080fd5b506102cc60048036038101906102c791906118b9565b610cff565b6040516102d99190611b10565b60405180910390f35b3480156102ee57600080fd5b506102f7610d3e565b6040516103049190611cf8565b60405180910390f35b34801561031957600080fd5b50610322610ece565b60405161032f9190611a67565b60405180910390f35b34801561034457600080fd5b5061035f600480360381019061035a91906118b9565b610f5c565b005b34801561036d57600080fd5b5061038860048036038101906103839190611d1a565b611365565b005b6060600060068054905067ffffffffffffffff8111156103ad576103ac611d5a565b5b6040519080825280602002602001820160405280156103e657816020015b6103d36115ab565b8152602001906001900390816103cb5790505b50905060005b6006805490508110156104cc576004600060018361040a9190611db8565b81526020019081526020016000206040518060a0016040529081600082015481526020016001820154815260200160028201548152602001600382015481526020016004820160009054906101000a900473ffffffffffffffffffffffffffffffffffffffff1673ffffffffffffffffffffffffffffffffffffffff1673ffffffffffffffffffffffffffffffffffffffff16815250508282815181106104b4576104b3611dec565b5b602002602001018190525080806001019150506103ec565b508091505090565b60036020528060005260406000206000915090508060000154908060010154908060020154908060030154908060040154908060050154905086565b60046020528060005260406000206000915090508060000154908060010154908060020154908060030154908060040160009054906101000a900473ffffffffffffffffffffffffffffffffffffffff16905085565b6060600360008381526020019081526020016000206006018054806020026020016040519081016040528092919081815260200182805480156105fe57602002820191906000526020600020905b8160009054906101000a900473ffffffffffffffffffffffffffffffffffffffff1673ffffffffffffffffffffffffffffffffffffffff16815260200190600101908083116105b4575b50505050509050919050565b60025481565b6005602052816000526040600020602052806000526040600020600091509150505481565b61063d611509565b60036000828152602001908152602001600020600201543414610695576040517f08c379a000000000000000000000000000000000000000000000000000000000815260040161068c90611e78565b60405180910390fd5b6003600082815260200190815260200160002060010154600360008381526020019081526020016000206004015410610703576040517f08c379a00000000000000000000000000000000000000000000000000000000081526004016106fa90611ee4565b60405180910390fd5b346003600083815260200190815260200160002060030160008282546107299190611db8565b9250508190555060036000828152602001908152602001600020600401600081548092919061075790611f04565b919050555060036000828152602001908152602001600020600601339080600181540180825580915050600190039060005260206000200160009091909190916101000a81548173ffffffffffffffffffffffffffffffffffffffff021916908373ffffffffffffffffffffffffffffffffffffffff160217905550346005600083815260200190815260200160002060003373ffffffffffffffffffffffffffffffffffffffff1673ffffffffffffffffffffffffffffffffffffffff16815260200190815260200160002060008282546108339190611db8565b9250508190555060036000828152602001908152602001600020600101546003600083815260200190815260200160002060040154036108775761087681610f5c565b5b61087f61154f565b50565b61088a611509565b60006005600083815260200190815260200160002060003373ffffffffffffffffffffffffffffffffffffffff1673ffffffffffffffffffffffffffffffffffffffff168152602001908152602001600020541161091d576040517f08c379a000000000000000000000000000000000000000000000000000000000815260040161091490611f98565b60405180910390fd5b60006005600083815260200190815260200160002060003373ffffffffffffffffffffffffffffffffffffffff1673ffffffffffffffffffffffffffffffffffffffff168152602001908152602001600020549050806003600084815260200190815260200160002060030160008282546109989190611fb8565b925050819055506003600083815260200190815260200160002060040160008154809291906109c690611fec565b919050555060003373ffffffffffffffffffffffffffffffffffffffff16826040516109f190612046565b60006040518083038185875af1925050503d8060008114610a2e576040519150601f19603f3d011682016040523d82523d6000602084013e610a33565b606091505b5050905080610a77576040517f08c379a0000000000000000000000000000000000000000000000000000000008152600401610a6e906120a7565b60405180910390fd5b60006005600085815260200190815260200160002060003373ffffffffffffffffffffffffffffffffffffffff1673ffffffffffffffffffffffffffffffffffffffff1681526020019081526020016000208190555060005b6003600085815260200190815260200160002060060180549050811015610ccb573373ffffffffffffffffffffffffffffffffffffffff16600360008681526020019081526020016000206006018281548110610b3057610b2f611dec565b5b9060005260206000200160009054906101000a900473ffffffffffffffffffffffffffffffffffffffff1673ffffffffffffffffffffffffffffffffffffffff1603610cbe576003600085815260200190815260200160002060060160016003600087815260200190815260200160002060060180549050610bb29190611fb8565b81548110610bc357610bc2611dec565b5b9060005260206000200160009054906101000a900473ffffffffffffffffffffffffffffffffffffffff16600360008681526020019081526020016000206006018281548110610c1657610c15611dec565b5b9060005260206000200160006101000a81548173ffffffffffffffffffffffffffffffffffffffff021916908373ffffffffffffffffffffffffffffffffffffffff16021790555060036000858152602001908152602001600020600601805480610c8457610c836120c7565b5b6001900381819060005260206000200160006101000a81549073ffffffffffffffffffffffffffffffffffffffff02191690559055610ccb565b8080600101915050610ad0565b505050610cd661154f565b50565b600160009054906101000a900473ffffffffffffffffffffffffffffffffffffffff1681565b60068181548110610d0f57600080fd5b906000526020600020016000915054906101000a900473ffffffffffffffffffffffffffffffffffffffff1681565b6060600060025467ffffffffffffffff811115610d5e57610d5d611d5a565b5b604051908082528060200260200182016040528015610d9757816020015b610d846115f0565b815260200190600190039081610d7c5790505b50905060005b600254811015610ec65760036000600183610db89190611db8565b81526020019081526020016000206040518060e001604052908160008201548152602001600182015481526020016002820154815260200160038201548152602001600482015481526020016005820154815260200160068201805480602002602001604051908101604052809291908181526020018280548015610e9257602002820191906000526020600020905b8160009054906101000a900473ffffffffffffffffffffffffffffffffffffffff1673ffffffffffffffffffffffffffffffffffffffff1681526020019060010190808311610e48575b505050505081525050828281518110610eae57610ead611dec565b5b60200260200101819052508080600101915050610d9d565b508091505090565b60606006805480602002602001604051908101604052809291908181526020018280548015610f5257602002820191906000526020600020905b8160009054906101000a900473ffffffffffffffffffffffffffffffffffffffff1673ffffffffffffffffffffffffffffffffffffffff1681526020019060010190808311610f08575b5050505050905090565b6003600082815260200190815260200160002060010154600360008381526020019081526020016000206004015414610fca576040517f08c379a0000000000000000000000000000000000000000000000000000000008152600401610fc190612142565b60405180910390fd5b6000610feb6003600084815260200190815260200160002060010154611559565b90506000600360008481526020019081526020016000206002015460036000858152602001908152602001600020600101546110279190612162565b905060006064600a8361103a9190612162565b61104491906121d3565b90506000600182846110569190611fb8565b6110609190612162565b9050600060036000878152602001908152602001600020600601858154811061108c5761108b611dec565b5b9060005260206000200160009054906101000a900473ffffffffffffffffffffffffffffffffffffffff16905060008173ffffffffffffffffffffffffffffffffffffffff16836040516110df90612046565b60006040518083038185875af1925050503d806000811461111c576040519150601f19603f3d011682016040523d82523d6000602084013e611121565b606091505b5050905080611165576040517f08c379a000000000000000000000000000000000000000000000000000000000815260040161115c90612250565b60405180910390fd5b6006829080600181540180825580915050600190039060005260206000200160009091909190916101000a81548173ffffffffffffffffffffffffffffffffffffffff021916908373ffffffffffffffffffffffffffffffffffffffff1602179055506003600088815260200190815260200160002060050160008154809291906111ef90611f04565b9190505550600060036000898152602001908152602001600020600301819055506000600360008981526020019081526020016000206004018190555060036000888152602001908152602001600020600601600061124e919061162d565b6112566115ab565b6006805490508160000181815250508781602001818152505060036000898152602001908152602001600020600501548160400181815250508381606001818152505082816080019073ffffffffffffffffffffffffffffffffffffffff16908173ffffffffffffffffffffffffffffffffffffffff16815250508060046000836000015181526020019081526020016000206000820151816000015560208201518160010155604082015181600201556060820151816003015560808201518160040160006101000a81548173ffffffffffffffffffffffffffffffffffffffff021916908373ffffffffffffffffffffffffffffffffffffffff1602179055509050505050505050505050565b600160009054906101000a900473ffffffffffffffffffffffffffffffffffffffff1673ffffffffffffffffffffffffffffffffffffffff163373ffffffffffffffffffffffffffffffffffffffff16146113bf57600080fd5b60018211611402576040517f08c379a00000000000000000000000000000000000000000000000000000000081526004016113f9906122e2565b60405180910390fd5b60008103611445576040517f08c379a000000000000000000000000000000000000000000000000000000000815260040161143c9061234e565b60405180910390fd5b61144d6115f0565b6002600081548092919061146090611f04565b9190505550600254816000018181525050828160200181815250508181604001818152505060018160a0018181525050806003600083600001518152602001908152602001600020600082015181600001556020820151816001015560408201518160020155606082015181600301556080820151816004015560a0820151816005015560c082015181600601908051906020019061150092919061164e565b50905050505050565b600260005403611545576040517f3ee5aeb500000000000000000000000000000000000000000000000000000000815260040160405180910390fd5b6002600081905550565b6001600081905550565b6000806001436115699190611fb8565b404260405160200161157c9291906123ba565b6040516020818303038152906040528051906020012060001c905082816115a391906123e6565b915050919050565b6040518060a0016040528060008152602001600081526020016000815260200160008152602001600073ffffffffffffffffffffffffffffffffffffffff1681525090565b6040518060e00160405280600081526020016000815260200160008152602001600081526020016000815260200160008152602001606081525090565b508054600082559060005260206000209081019061164b91906116d8565b50565b8280548282559060005260206000209081019282156116c7579160200282015b828111156116c65782518260006101000a81548173ffffffffffffffffffffffffffffffffffffffff021916908373ffffffffffffffffffffffffffffffffffffffff1602179055509160200191906001019061166e565b5b5090506116d491906116d8565b5090565b5b808211156116f15760008160009055506001016116d9565b5090565b600081519050919050565b600082825260208201905092915050565b6000819050602082019050919050565b6000819050919050565b61173481611721565b82525050565b600073ffffffffffffffffffffffffffffffffffffffff82169050919050565b60006117658261173a565b9050919050565b6117758161175a565b82525050565b60a082016000820151611791600085018261172b565b5060208201516117a4602085018261172b565b5060408201516117b7604085018261172b565b5060608201516117ca606085018261172b565b5060808201516117dd608085018261176c565b50505050565b60006117ef838361177b565b60a08301905092915050565b6000602082019050919050565b6000611813826116f5565b61181d8185611700565b935061182883611711565b8060005b8381101561185957815161184088826117e3565b975061184b836117fb565b92505060018101905061182c565b5085935050505092915050565b600060208201905081810360008301526118808184611808565b905092915050565b600080fd5b61189681611721565b81146118a157600080fd5b50565b6000813590506118b38161188d565b92915050565b6000602082840312156118cf576118ce611888565b5b60006118dd848285016118a4565b91505092915050565b6118ef81611721565b82525050565b600060c08201905061190a60008301896118e6565b61191760208301886118e6565b61192460408301876118e6565b61193160608301866118e6565b61193e60808301856118e6565b61194b60a08301846118e6565b979650505050505050565b61195f8161175a565b82525050565b600060a08201905061197a60008301886118e6565b61198760208301876118e6565b61199460408301866118e6565b6119a160608301856118e6565b6119ae6080830184611956565b9695505050505050565b600081519050919050565b600082825260208201905092915050565b6000819050602082019050919050565b60006119f0838361176c565b60208301905092915050565b6000602082019050919050565b6000611a14826119b8565b611a1e81856119c3565b9350611a29836119d4565b8060005b83811015611a5a578151611a4188826119e4565b9750611a4c836119fc565b925050600181019050611a2d565b5085935050505092915050565b60006020820190508181036000830152611a818184611a09565b905092915050565b6000602082019050611a9e60008301846118e6565b92915050565b611aad8161175a565b8114611ab857600080fd5b50565b600081359050611aca81611aa4565b92915050565b60008060408385031215611ae757611ae6611888565b5b6000611af5858286016118a4565b9250506020611b0685828601611abb565b9150509250929050565b6000602082019050611b256000830184611956565b92915050565b600081519050919050565b600082825260208201905092915050565b6000819050602082019050919050565b600082825260208201905092915050565b6000611b73826119b8565b611b7d8185611b57565b9350611b88836119d4565b8060005b83811015611bb9578151611ba088826119e4565b9750611bab836119fc565b925050600181019050611b8c565b5085935050505092915050565b600060e083016000830151611bde600086018261172b565b506020830151611bf1602086018261172b565b506040830151611c04604086018261172b565b506060830151611c17606086018261172b565b506080830151611c2a608086018261172b565b5060a0830151611c3d60a086018261172b565b5060c083015184820360c0860152611c558282611b68565b9150508091505092915050565b6000611c6e8383611bc6565b905092915050565b6000602082019050919050565b6000611c8e82611b2b565b611c988185611b36565b935083602082028501611caa85611b47565b8060005b85811015611ce65784840389528151611cc78582611c62565b9450611cd283611c76565b925060208a01995050600181019050611cae565b50829750879550505050505092915050565b60006020820190508181036000830152611d128184611c83565b905092915050565b60008060408385031215611d3157611d30611888565b5b6000611d3f858286016118a4565b9250506020611d50858286016118a4565b9150509250929050565b7f4e487b7100000000000000000000000000000000000000000000000000000000600052604160045260246000fd5b7f4e487b7100000000000000000000000000000000000000000000000000000000600052601160045260246000fd5b6000611dc382611721565b9150611dce83611721565b9250828201905080821115611de657611de5611d89565b5b92915050565b7f4e487b7100000000000000000000000000000000000000000000000000000000600052603260045260246000fd5b600082825260208201905092915050565b7f4e6f7420656e6f7567682066756e647320746f20627579207469636b65740000600082015250565b6000611e62601e83611e1b565b9150611e6d82611e2c565b602082019050919050565b60006020820190508181036000830152611e9181611e55565b9050919050565b7f416c6c207469636b65747320736f6c64206f7574000000000000000000000000600082015250565b6000611ece601483611e1b565b9150611ed982611e98565b602082019050919050565b60006020820190508181036000830152611efd81611ec1565b9050919050565b6000611f0f82611721565b91507fffffffffffffffffffffffffffffffffffffffffffffffffffffffffffffffff8203611f4157611f40611d89565b5b600182019050919050565b7f4e6f7468696e6720746f20726566756e64000000000000000000000000000000600082015250565b6000611f82601183611e1b565b9150611f8d82611f4c565b602082019050919050565b60006020820190508181036000830152611fb181611f75565b9050919050565b6000611fc382611721565b9150611fce83611721565b9250828203905081811115611fe657611fe5611d89565b5b92915050565b6000611ff782611721565b91506000820361200a57612009611d89565b5b600182039050919050565b600081905092915050565b50565b6000612030600083612015565b915061203b82612020565b600082019050919050565b600061205182612023565b9150819050919050565b7f526566756e64206661696c656400000000000000000000000000000000000000600082015250565b6000612091600d83611e1b565b915061209c8261205b565b602082019050919050565b600060208201905081810360008301526120c081612084565b9050919050565b7f4e487b7100000000000000000000000000000000000000000000000000000000600052603160045260246000fd5b7f4e656564206d6f726520706c617965727320746f207069636b2077696e6e6572600082015250565b600061212c602083611e1b565b9150612137826120f6565b602082019050919050565b6000602082019050818103600083015261215b8161211f565b9050919050565b600061216d82611721565b915061217883611721565b925082820261218681611721565b9150828204841483151761219d5761219c611d89565b5b5092915050565b7f4e487b7100000000000000000000000000000000000000000000000000000000600052601260045260246000fd5b60006121de82611721565b91506121e983611721565b9250826121f9576121f86121a4565b5b828204905092915050565b7f7472616e73666572206661696c65640000000000000000000000000000000000600082015250565b600061223a600f83611e1b565b915061224582612204565b602082019050919050565b600060208201905081810360008301526122698161222d565b9050919050565b7f43616e7420616464206c6f74746572792077697468206c657373207468616e2060008201527f3220706c61796572730000000000000000000000000000000000000000000000602082015250565b60006122cc602983611e1b565b91506122d782612270565b604082019050919050565b600060208201905081810360008301526122fb816122bf565b9050919050565b7f4c6f7474657279206d757374206861766520656e746572207072696365000000600082015250565b6000612338601d83611e1b565b915061234382612302565b602082019050919050565b600060208201905081810360008301526123678161232b565b9050919050565b6000819050919050565b6000819050919050565b61239361238e8261236e565b612378565b82525050565b6000819050919050565b6123b46123af82611721565b612399565b82525050565b60006123c68285612382565b6020820191506123d682846123a3565b6020820191508190509392505050565b60006123f182611721565b91506123fc83611721565b92508261240c5761240b6121a4565b5b82820690509291505056fea2646970667358221220b0e8b9eff79cfde3a513968eff9d9121661ef9f1776aee3908583c6f59018e7664736f6c63430008180033",
  "linkReferences": {},
  "deployedLinkReferences": {}
}